:020000040800F2
:1000000068200020190300083D410008213E000837
:1000100039410008CD140008AD640008000000005C
:10002000000000000000000000000000094500087A
:100030005D15000800000000414100080D45000862
:1000400033030008330300083303000833030008B8
:1000500033030008330300083303000833030008A8
:100060003303000833030008330300083303000898
:100070003303000833030008330300083303000888
:100080003303000833030008330300083303000878
:100090003303000833030008330300083303000868
:1000A0003303000833030008330300083303000858
:1000B00033030008000000000000000033030008C4
:1000C00033030008000000000000000033030008B4
:1000D00000000000330300083303000800000000A4
:1000E0003303000833030008000000000000000094
:1000F0000000000000000000000000000000000000
:1001000000000000000000000000000033030008B1
:100110000000000000000000330300083303000863
:1001200033030008330300083303000833030008D7
:100130003303000800000000000000000000000081
:100140003303000833030008330300086563000825
:1001500033030008330300083303000833030008A7
:1001600033030008330300083303000800000000D5
:100170003303000833030008000000000000000003
:1001800033030008330300083303000800F002F8CB
:1001900000F0B2F80AA090E8000C82448344AAF16F
:1001A0000107DA4501D100F0A7F8AFF2090EBAE86D
:1001B0000F0013F0010F18BFFB1A43F0010318479B
:1001C000B0720000D07200000A444FF0000C10F82A
:1001D000013B13F0070408BF10F8014B1D1108BFC5
:1001E00010F8015B641E05D010F8016B641E01F865
:1001F000016BF9D113F0080F1EBF10F8014BAD1CB5
:100200000C1B09D16D1E58BF01F801CBFAD505E0D2
:1002100014F8016B01F8016B6D1EF9D59142D6D32C
:10022000704700000023002400250026103A28BF54
:1002300078C1FBD8520728BF30C148BF0B60704758
:100240006E2900F06F81702900F0B782662907F0EF
:100250006D80652907F06A80672907F0678061294A
:1002600007F0668003681B0A28BF41F080016929F6
:1002700000F01C81642900F01981752900F01681B5
:100280006F2900F04582782900F08382E92900F087
:10029000DF81E42900F0DC81F52900F0D981EF2924
:1002A00000F04282F82900F082820368DB0928BF4F
:1002B00041F08001632900F08C87732900F0918759
:1002C000E32900F09C87F32900F0A1870020704704
:1002D0001FB507F01EF800F0EFFF0400002000211A
:1002E00006F052FE401C60600020002106F036FE41
:1002F000E0601FBD10B510BD00F0B1FF1146FFF763
:10030000E7FF06F029F901F08DF803B4FFF7F2FFDB
:1003100003BC01F0D3F800000948804709480047B2
:10032000FEE7FEE7FEE7FEE7FEE7FEE7FEE7FEE7A5
:10033000FEE7FEE704480549054A064B7047000002
:10034000894500088D0100086814002068200020FD
:1003500068180020681800207CB51D4616460C0061
:10036000009007D04142A14202D32044401E01E048
:100370004FF0FF30064B7B442A46694601903046D9
:1003800000F0E9F8002C02D0009A002111707CBD29
:10039000030200004FF0000200B513469446964653
:1003A000203922BFA0E80C50A0E80C50B1F1200188
:1003B000BFF4F7AF090728BFA0E80C5048BF0CC036
:1003C0005DF804EB890028BF40F8042B08BF704794
:1003D00048BF20F8022B11F0804F18BF00F8012B06
:1003E000704770477047704770B50446856900686C
:1003F000C10601D5302600E02026C00707D070BD19
:10040000D4E9012130469047206A401C20626D1ECD
:10041000F6D570BD70B5044685690078C00707D170
:1004200070BDD4E9012120209047206A401C206241
:100430006D1EF6D570BD09684A0501D540B27047FA
:10044000C905FCD500B2704709684A0501D5C0B29C
:100450007047C905FCD580B2704770B50C4605469B
:10046000012A05D02878800600D5EA69002302E039
:10047000012305E05B1C934202D2E05C0028F9D125
:10048000A869E618C01AA861286A18442862284694
:10049000FFF7AAFF04E0D5E9012114F8010B90470A
:1004A000B442F8D32846FFF7B5FF70BD2DE9F041FF
:1004B0000646002410687529314616A510D0FFF7AE
:1004C000BAFF002802DA404213A507E031688A0724
:1004D00001D512A502E0490704D511A5012401E0C8
:1004E000FFF7B2FF00210A2206F1240709E0B0FB62
:1004F000F2FCB0FBF2F302FB1C00303078541846DB
:10050000491C0028F3D123462A463046BDE8F04175
:1005100000F06ABA000000002D0000002B0000006F
:100520002000000011680268006A530501D50870B8
:100530000AE0D30501D5088006E0130603D5C217EB
:10054000C1E9000200E008600120704701694A1C0F
:1005500002610878704700B58FB0CDE90131002104
:10056000059105497944CDE903101146684600F02C
:100570002FF90FB000BD0000E5FFFFFFD1E9002318
:100580009A4202D2531C0B60107070472DE9FF5F36
:1005900015468A460446DFF8AC80F8440027D8E9BF
:1005A00000103E46CDE9001010E03AF816106A46F9
:1005B00002A800F030FE411C07D02178890603D53F
:1005C000E269391891420DD80744761C20788006DC
:1005D00002D5E069B84205DDAE42E6DB3AF8160026
:1005E0000028E2D1A069C01BA0612046FFF7FCFEF5
:1005F000D8E90010CDE90010002017E03AF81810F3
:100600006A4602A800F007FEB0F1FF3F81460BD01A
:1006100000250DF1080B05E0D4E901211BF80500C8
:1006200090476D1C4D45F7D308F10100B04280465C
:10063000E4DB206A384420622046FFF7EBFE00F03E
:1006400003B80000966D00003FBCBDE8C09F0000ED
:100650002DE9F0418046D21D22F007020025D2E9A3
:100660000002F52915A614D0011E72F1000106DA68
:100670000023D0EB030063EB020211A608E0D8F8D8
:1006800000108B0701D50FA602E0490701D50EA681
:1006900001251146002408F1240704E000F05FF969
:1006A00030323A55641C50EA0102F7D12B463246EB
:1006B00021464046BDE8F04100F096B90000000038
:1006C0002D0000002B0000002000000030B40021AD
:1006D00000F1240408E002F00705D208303542EAB0
:1006E0004372DB086554491C52EA0305F3D10468E0
:1006F000002310A2250708D504F020040C4304D0E1
:10070000C46901230CA2641EC46130BC00F06CB942
:1007100010B5044621461068FFF796FE02462046B3
:10072000BDE810400023D1E7D21D22F00701D1E936
:100730000023CBE70000000030000000F0B40D46BD
:100740000188090502D5214C7C4402E01F4C7C4401
:100750000E34002100F1240608E002F00F07120910
:10076000E75D42EA03721B097754491C52EA03070A
:10077000F3D102780023120704D5702D06D009B1F9
:10078000022311342246F0BC00F02EB901231034AC
:10079000F8E770B504460D4621461068FFF754FE91
:1007A000024629462046BDE870400023C6E7D21D18
:1007B00022F00703D3E90023C0E70368126843F07F
:1007C000200303600823C3610023B7E7F06B000038
:1007D0002DE9F05F894604464FF0000ADFF874B156
:1007E000FB44C0F820A02046E1688847002874D068
:1007F000252806D0D4E901219047206A401C2062B8
:10080000F1E700265F462046E16888472028054634
:1008100007DB312D05D2781910F8200C08B10643FA
:10082000F1E7B00701D526F00406C4F81CA00027A4
:10083000C4F818A02A2D09D0284606F087FB38B343
:1008400004EB8708303DC8F8185019E059F8041B2C
:10085000204604EB87029161E1688847012F054635
:1008600018D1E069002820DA26F020061DE0D8F82B
:10087000180000EB800005EB40003038C8F8180085
:100880002046E1688847054606F060FB0028EED167
:10089000012F0AD02E2D08D12046E16888477F1C01
:1008A0000546022F46F02006C4DBA069002803DAC3
:1008B000404246F00106A061F00701D026F0100684
:1008C0006C2D0BD0682D09D04C2D39D06A2D35D028
:1008D000742D35D07A2D33D016E038E0E1682F46FC
:1008E00020468847B842054609D16C2F26D04FF4E0
:1008F0008060E168064320468847054604E06C2F87
:100900001AD04FF4807006430DB3A5F141001928A9
:1009100002D8203546F400664A462946204626601D
:100920004E46FFF78DFC80B101280BD0F61D26F056
:10093000070000F1080956E74020E4E78020D8E7E7
:100940000020D6E706F104094DE7284652E7206A61
:1009500000F002B8806B000030BCBDE8C09F30B52D
:10096000B0F10A0271F100034FEA900E4EEA817E67
:10097000B0EB0E0061EB91014FEA101E4EEA017ED2
:1009800010EB0E0041EB11114FEA102E4EEA016EF2
:1009900010EB0E0041EB11214FEA104E4EEA014ED2
:1009A00010EB0E0041EB1141401841F100014FEAFC
:1009B000D00040EA41704FEAD1014FEA810444EA95
:1009C000907410EB800544EB01046D1944EB0404B2
:1009D000521BA3414FF0000348BF0A3200D530BD7F
:1009E000401C41F1000130BD2DE9F0470D4699460C
:1009F0009246044600F124080168880604D5E0699F
:100A000021F01001216000E00120A84201DD471B18
:100A100000E00027A1697A1902EB0900081AA06119
:100A20002078C00602D42046FFF7DEFC002608E04E
:100A3000D4E901211AF806009047206A401C761C70
:100A400020624E45F4DB2078C0060AD52046FFF729
:100A5000CBFC06E0D4E9012130209047206A401CFD
:100A60002062381EA7F10107F4DC07E0D4E9012178
:100A700018F805009047206A401C2062281EA5F146
:100A80000105F3DC2046FFF7C5FC2078000602D5FF
:100A90000220BDE8F0870120FBE72DE9FF4F0C465F
:100AA0001E464FF0FF378BB0D2E90001DDF86080C1
:100AB0000A908A46C1F30A5505B93D460021084609
:100AC0004FF00000BAF1000F00F4400005DA00EB2F
:100AD00080004FF4400101EA50004FEA9059B9F10B
:100AE000010F00DDB9460A9850EA4A000ED044F6DC
:100AF0001050A5F2FF3545432F14B8F1000F1ED05A
:100B00007542291E1EDDC9F100021CE0B8F1010F7B
:100B10004FF0000001D0302103E0F24305E0215402
:100B2000401CB042FBDB30460022002121540B99CF
:100B3000C1F80880C1E900200FB000F0BCB9BD1BAE
:100B40006D1CDEE74A4600DA694206A800F0F8FBB1
:100B500006AB93E8070003AB83E8070050460A9909
:100B600005F013FE8DE80700A0F500501F38009037
:100B70000398002D0ADD42F21F014A460844002373
:100B800003A90390684606F07DF809E0A0F500503F
:100B90004A461F38002303A90390684606F087F8E9
:100BA0008DE807000004000C03D04FF0FF3041082F
:100BB00000E01046B8F1000F03D000220092154665
:100BC0001EE0751E05D4FFF7CAFE303262556D1E59
:100BD000F9D5B3460122084302D000227F1C04E06D
:100BE0002078302801D100227F1E002A099784D066
:100BF0001DE0112D07DAFFF7B2FE303262556D1C91
:100C000050EA0102F5D1084302D00098C8B10EE0C5
:100C10000021681E05E0235C625C63542254401E80
:100C2000491C8142F7DBAB46A81B401E09900020FF
:100C300004F80B000B98099AC0F80880C0E9002B53
:100C40007AE711264FF0000857E72DE9F04F884664
:100C50000446D21D22F0070191B0D1E90001CDE98F
:100C60000A0106F05BF902460B98C00F01D02D2057
:100C700007E02068810701D52B2002E0202101EA4E
:100C8000C000032A099001D0072A05DB034641462C
:100C9000204600F015FB0BE12078800601D5E069C5
:100CA00000E00620B8F1650F814606D0B8F1660F66
:100CB00018D0B8F1670F70D131E00020B9F1110FF1
:100CC000009001DB112301E009F101030AAA01A947
:100CD0000CA8FFF7E2FEDDE90C70002609F1010522
:100CE000834647E001204B4600904FF000470AAA98
:100CF00001A90CA8FFF7D1FEDDE90DB00C995D4606
:100D0000002610B909F101000D18B9EB050003D454
:100D1000C0F1FF3609F10105A5EB09002BE0B9F19F
:100D2000010F01DA4FF001090020B9F1110F009015
:100D3000484601DD112300E003460AAA01A90CA8D8
:100D4000FFF7ABFEDDE90C704D46002683462078A8
:100D500000070AD4AB4500DA5D4601A8012D04DD89
:100D6000411911F8011C302907D04F4502DA17F15B
:100D7000040F04DA012082460FE06D1EEEE7002F1B
:100D800002DCED1B3E4403E0781CA84200DD7D1C24
:100D9000B81B00F1010A4FF000472078000703D488
:100DA000AA4501DB4FF0FF3A0021B7F1004F0DF1EA
:100DB00043088DF8431024D002202B23002F01DAA2
:100DC0007F422D230A21021EA0F1010000DC5FB149
:100DD00097FBF1FC97FBF1F201FB1C7C17460CF131
:100DE000300C08F801CDEEE7A8F10100037021886E
:100DF000090501D5452100E06521A0F1010800F8B1
:100E0000011C09980FA9A1EB0807FF1D00B10120E3
:100E1000411901EBEA70A1693844081A401EA0612B
:100E20002078C00602D42046FFF7DEFA099828B1E0
:100E3000D4E901219047206A401C20622078C00636
:100E400022D52046FFF7D0FA1EE0002E04DBB34582
:100E500002DD01A8805D00E03020D4E90121904747
:100E6000206A401C2062761CAAF101005FEA000A99
:100E70000AD100F021FAC0680168405CD4E9012180
:100E80009047206A401C2062281EA5F10105DCDC89
:100E900007E0D4E9012118F8010B9047206A401CB3
:100EA0002062381EA7F10107F3DC2046FFF7B2FAF3
:100EB000032011B041E630BCBDE8C08F2DE9F04FF2
:100EC00004460D46D21D22F0070089B0D0E90097F4
:100ED0004846394606F022F80246F80F01D02D2385
:100EE00007E02068810701D52B2302E0202101EAD9
:100EF000C0038DF820300BB1012000E00020032A50
:100F0000824601D0072A04DB2946204600F0D8F9A2
:100F10003FE12078800601D40D2500E0E569C7F3A4
:100F20000A560D2D49DA00214FEA175B08464FF0AB
:100F30000000002F00F4400007DA00EB80004FF4BF
:100F4000400100EBD07001EA60008115012901DD4C
:100F50004FF0FF3100224FEA850CBCF1180F06D389
:100F60001346ACF118004FF08052C24003E04FF43A
:100F7000801323FA0CF30CF10C0CBCF1200F04D3FA
:100F8000ACF1200C09FA0CF001E007FA0CF0002992
:100F90004FF0004801DD18B90FE00ED140450CD3E9
:100FA00019EB02095F4121B9404502D19F4329EA6B
:100FB0000209BBEB175F00D0761C2088000502D524
:100FC0007B48784402E07A487844193808AA3023EC
:100FD00002F80A30037C0AF10101002E0AF1020A2C
:100FE00053546A4602DC4FF0300101E04FF031010A
:100FF0004FF001088DF8001002D0A6F2FF3603E092
:1010000059EA470100D06B4E002D02DC2178090718
:1010100004D54FF002082E218DF80110C44600219E
:101020000BE0C7F303433F01C35C491C6D1E02F88C
:101030000830052908F1010801DA002DF1DC002152
:101040000CE000EB1973491C1B786D1E082902F88F
:1010500008304FEA091908F1010801DA002DF0DC27
:1010600021688B0602D516E0A8F10108E04505DDF0
:1010700002EB080313F8013C302BF5D0B8F1000F58
:1010800009DD02EB080313F8013C2E2B03D10907FD
:1010900001D4A8F10108002D05DD3E2102F8081059
:1010A0006D1E08F10108407C002E02F8080008F1CE
:1010B000010804DA2D20764202F8080002E02B2015
:1010C00002F808000A214FF47A70864208F10108FC
:1010D0000BDB96FBF0F3303302F8083096FBF0F3AD
:1010E00008F1010800FB136601E0642E0CDB6420AC
:1010F00096FBF0F3303302F8083096FBF0F308F17A
:10110000010800FB136601E00A2E06DB96FBF1F0F6
:10111000303002F8080008F1010896FBF1F001FBFD
:101120001060303002F80800A16908F1010808EBEE
:10113000050202EB0A00081AA0612078C00602D45A
:101140002046FFF751F9216A08AE01EB0A00206240
:1011500004E0D4E9012116F8010B9047BAF1010A25
:10116000F7D22078C00602D52046FFF73DF96E463B
:1011700009E016F8010B3E280FD0D4E90121904771
:10118000206A401C2062B8F10108F2D22046FFF725
:1011900041F909B0032000F00FB8206A284420620A
:1011A00003E0D4E90121302090476D1EEBD3F8E72E
:1011B000C263000002FCFFFF30BCBDE8C08F10B569
:1011C000436913B1AFF3008001E0FFF746F9012056
:1011D00010BD127800F124010A7000224A70012229
:1011E000EDE711684FF0FF32E9E710B5436913B13D
:1011F000AFF3008001E0FFF7C9F9012010BD1288AC
:1012000000F1240182840022C2840122EDE71168EA
:101210004FF0FF32E9E72DE9F04116460C4605464E
:1012200000F042F8036893F80101012807D0FF2C71
:1012300012D8185D80B101202C70BDE8F081D3F880
:1012400007013246214603F20713C7182846BC4659
:10125000BDE8F041002360474FF0FF30EDE77546F1
:1012600000F0EAF8AE4605006946534620F0070054
:10127000854618B020B5FFF75DF8BDE820404FF077
:1012800000064FF000074FF000084FF0000BAC468F
:10129000ACE8C009ACE8C009ACE8C009ACE8C009DA
:1012A00021F007018D46704710B500F005F8001DCC
:1012B00010BD00BFD55C000000487047B0010020A1
:1012C0002DE9F0411F46044603260168072A01F470
:1012D000006004DB08B116A505E016A503E008B11F
:1012E00015A500E015A521F010002060A069C01E22
:1012F000A0610FB1401EA0612046FFF775F84FB105
:10130000D4E9012138469047206A401C2062C01C65
:10131000206206E0206AFAE7D4E9012115F8010B02
:101320009047761EF8D22046FFF774F8BDE8F081AA
:101330004E414E006E616E00494E4600696E660079
:101340002DE9F047814616468AB0354878440DC8E5
:101350008DE80D0032487844801C03AC0DC884E849
:101360000D0041F69B300844372190FBF1F290FBD1
:10137000F1F5A5F1800501FB12041B3C02D5644286
:10138000012000E00020DFF898A080460027FA4402
:10139000AAF1BE0A0EE0E0070AD03246684607EB23
:1013A000470101230AEB810105F081FC8DE807006C
:1013B00064107F1C002CEED1194F7F44AE3F19E022
:1013C000E80715D007EB04100DF1180A90E80E009D
:1013D0008AE80E00C068F04201D1981908903246A0
:1013E000012306A903A805F062FC03AB83E807000C
:1013F0006D10641C002DE3D14FF0010332466946A5
:10140000B8F1000F03A802D005F03CFC01E005F0A4
:101410004EFCC9E90001C9F808200AB0BDE8F08710
:10142000C860000010B50446AFF300802046BDE858
:101430001040FEF76ABF000000487047900100208E
:1014400030B44FF0013C50F8042B51F8043BCCFA77
:1014500052F4D51A20D1FCB950F8042B51F8043BB2
:10146000CCFA52F4D51A17D1B4B950F8042B51F86C
:10147000043BCCFA52F4D51A0ED16CB950F8042BB7
:1014800051F8043BCCFA52F4D51A05D1002CDAD02D
:1014900030BC4FF00000704729BAB1FA81F111F069
:1014A0001801D1F120008440F2D1CA40CB4012F0A3
:1014B000FF0213F0FF0330BCD01A70470149182017
:1014C000ABBEFEE72600020070470000FEE700000A
:1014D000002070470020704710B540F63464C2F217
:1014E000000440F63421C2F200012046002203F03D
:1014F00073F940F23461C2F20001204603F062F950
:10150000002010BD10B540F63464C2F2000401465C
:10151000204603F057F9204603F036F9002010BDAD
:101520000020704710B540F63462C2F20002D2F8D3
:10153000BC22D2F81432002B1CBF012010BD40F693
:101540003464C2F200040A460146204603F044F91E
:101550002046BDE8104003F0C3B90000704700000A
:10156000EFF3108072B600BFFEE70000B0B504468E
:1015700000F0F0F8054640F20000C2F200000078EA
:10158000611C18BF044400BF00F0E4F8401BA042F7
:10159000FAD3B0BD2DE9F04F82B00D68002D00F0F8
:1015A000CD8040F2004E40F60002C4F2010EC4F6B7
:1015B00000020723002401264FF0000C0027904270
:1015C00008BF022300934CE040F20042C4F6000240
:1015D000DDF800A0904208BF4FF0010A0CF00C03A8
:1015E0000F259D4029EA05050AFA03F3BA082B43A3
:1015F0004BF82230DEF808204B6842EA080540F23A
:101600000C49DE0258BF22EA0805CEF80850C4F2A1
:101610000109D9F800209E0242EA080558BF22EAD3
:101620000805C9F80050DEF804209E0342EA0805C8
:1016300058BF22EA0805CEF80450DEF80020012643
:1016400042EA0805DB0358BF22EA0805CEF800503D
:101650000D68013735FA07F20CF1040C04F10204AD
:101660006CD006FA07F215EA0208F1D0D1F804A00E
:1016700003250AF0030BABF10103A540012B6FEA30
:1016800005090FD88368CD6803EA0903A5402B43F9
:101690008360436823EA0202CAF30013BB401A4383
:1016A000426005E0BBF1030F02D14FF0030B20E0D5
:1016B000C2688B6802EA0902A3401A43BBF1020F19
:1016C000C26016D16FF0030202EA570202440CF026
:1016D0001C050F23D2F820A003FA05FB0B692AEAA8
:1016E0000B0AAB4043EA0A031362D1F804A00AF0E4
:1016F000030B02680BFA04F302EA09021A431AF414
:10170000403F0260A4D041F26003C4F202031A68B1
:10171000AEF57E7B42F001021A601A68B0F1904F7C
:1017200002F001020192019A27F003025BF8029095
:101730007FF44AAF4FF0000A50E700BF02B000F05C
:1017400000B830BCBDE8C08F1823002A08BF28238A
:10175000C150704741F26440C2F200000068704717
:1017600040F2000041F26441C2F20000C2F2000106
:1017700000780A68104408607047000080B50320B4
:1017800000F08CF80F2000F009F800281CBF0120A1
:1017900080BD00F029F8002080BD000070B540F247
:1017A0000006C2F200063178E1B1044640F228009A
:1017B000C2F200004FF47A720068B2FBF1F1B0FBA4
:1017C000F1F002F017FB0F2C4FF0010508D838B9E3
:1017D0004FF0FF3021460022002500F033F87460FE
:1017E000284670BD012070BD82B041F25800C4F29D
:1017F0000200816841F001018160816801F001010E
:1018000001910199016841F080510160006800F088
:1018100080500090009802B070470000002848BF38
:101820007047C1B200F01F00012202FA00F04EF230
:101830000012CEF2000242EAD10121F00301086059
:101840007047000010B54EF60C5CCEF2000CDCF8D0
:101850000030C3F3022E8EF00704042C28BF0424AA
:10186000BEF103034FF0FF3E0EFA04F438BF00232D
:10187000A14399400EFA03F39A43114300F00F027B
:1018800000F160430901043A03F56443624400280F
:1018900048BF02F10C03197010BD00004EF60C5148
:1018A000CEF200010A684FF6FF031A4060F30A22E5
:1018B00042F0806040F0FD700860704701220168CE
:1018C000C0F8F022002280F8E422B1F8540040F081
:1018D0000100A1F85400B1F8540040F002020020C9
:1018E000A1F854207047000010B50129044613D018
:1018F00011BBA06948B102F00BFE4EF61050CEF2BB
:101900000000016821F006010160D4F8F802BDE88A
:10191000104003F067BB00BFD4F8F80203F0E8FB07
:10192000A069002808BF10BD4EF61050CEF200008E
:10193000016841F00601016010BD000080B501F0B2
:10194000070C0CEB8C0C00EBCC0C01EB810E0CF1BA
:101950002C0C00EBCE00090658BF00F5B67C002029
:10196000002A19BFCCF808300121ACF8063000215C
:101970008CF80C1080BD000001EB8102D0F8F83229
:1019800000EBC200026C184603F0E8B901EB8102DB
:10199000D0F8F83200EBC200D0F88021184603F0EE
:1019A00031BA000010B5044648B2B0F1FF3F01F073
:1019B000070000EB800104EBC10205DD02F5B67102
:1019C000002382F86D3104E0012302F12C0182F83A
:1019D0002D3094F8AC220870012A04BF022010BDFB
:1019E0002068012284F8AC2203F09AFF002084F8DA
:1019F000AC0210BDB0B50446406801F00F0282424F
:101A000084BF0120B0BD48B2B0F1FF3F01F0070034
:101A100000EB800104EBC10206DD02F5B671002384
:101A200082F86D3105E000BF012302F12C0182F83C
:101A30002D3094F8AC220025012A8D70087004BF67
:101A40000220B0BD2068012284F8AC2204F008F81E
:101A5000284684F8AC52B0BD01F0070101EB8101CA
:101A600000EBC100D0F888017047000070B5064651
:101A700048B2B0F1FF3F01F0070000EB800107DD45
:101A800006EBC10404F5B671002584F86D5106E03B
:101A900006EBC10C01240CF12C018CF82D404D7883
:101AA0000870002D0A61CB7018BFC881022B04BFDB
:101AB0000020087196F8AC02012804BF022070BD16
:101AC0003068012286F8AC2203F000FE002086F880
:101AD000AC0270BD10B501F0070C0CEB8C0100EBF3
:101AE000C10E00680EF5B6710024CEF88021CEF844
:101AF0008431CEF888418EF86D418EF86CC104F0C7
:101B000007F8002010BD0000B0B50446406801F0A1
:101B10000705854284BF0120B0BD48B2B0F1FF3F48
:101B20000ADD01EB810004EBC00000F5B671002274
:101B300080F86D2109E000BF05EB850004EBC000D3
:101B4000012200F12C0180F82D2094F8AC02012232
:101B500001288A700D7004BF0220B0BD206884F88F
:101B6000AC2203F0BBFF1DB1002084F8AC02B0BD75
:101B7000206804F52D7103F071FF002084F8AC0299
:101B8000B0BD000080B501F0070C0CEB8C0100EB40
:101B9000C10101F82CCF00684FF0010C01F11407CE
:101BA00081F824C04FF0000E87E80C400B6281F8EA
:101BB00001C003F0ADFF002080BD00002DE9F04F13
:101BC00081B00446006804F0D3FB010420D4410531
:101BD00000F10084410400F10F84810400F12684A7
:101BE000C10400F12D84010500F15084010600F1CB
:101BF0006384810500F17084C00540F1F983206899
:101C0000B0F8441021F48071A0F8441000F0F0BB4B
:101C10002068B0F94410B1F1FF3F00F3E98304F507
:101C20002D7140F60F7B009123E000BFB0F85010FB
:101C300094F86C21014401EBC201B1F80634B4F808
:101C4000722100996FF39F23C4F8883104F094FB4C
:101C50002068018801EA0B0180310180204600F0F4
:101C600083FD00BF2068B0F94410B1F1FF3F00F3DD
:101C7000BF83B0F8442012F00F090DD030F92910BD
:101C80004FEA490AB1F1FF3F1FFA81F832DD5FEAFE
:101C90000860E7D562E100BF0188D2066ED401EA90
:101CA0000B0101F500410180B0F8501094F82C2090
:101CB000084400EBC200B0F80204216C6FF39F20CF
:101CC000A0640844206420460021FFF755FE94F8E4
:101CD00028000028C6D0606C0028C3D194F82800E2
:101CE000216840F08000C0B2A1F84C00002084F8C8
:101CF0002800B7E730F81A1040F60F7C01EA0B0114
:101D0000803120F81A1009EB890104EBC10B9BF814
:101D100078110BF5B676002900F080809BF86F11E2
:101D2000022940F08D80B0F850703178DBF88431B2
:101D300007440BF5C2725FEA484507EBC10700F1A3
:101D40009980B7F8067400256FF39F27DB1B38BF17
:101D50002B46136040F2A4805FEA486200F1B08035
:101D600030F8212048F2C00302EA0C021A4320F89E
:101D70002120002F40F0A580CAE000BF0A053FF5F2
:101D800055AF09B2B1F1FF3F3FF76CAF018801EAEF
:101D90000B0180310180B0F8501094F86C2101449F
:101DA00001EBC201B1F806346FF39F23C4F8883108
:101DB00093B1D4F8801179B1B4F8722104F0DCFA4F
:101DC000D4F88001D4F888110844C4F88001204672
:101DD0000021FFF7DBFD206801880A053FF542AFCF
:101DE00001F44051B1F5405F3FF43CAFB0F8501002
:101DF000D4F87C3100F206423F2BC0F00F825F091D
:101E0000DE064FF0FF3608BF06EB531748F200031B
:101E1000CFF6FF7343EA87237EE200BFB0F850108D
:101E20003278014401EBC201B1F806746FF39F27C9
:101E3000002F6DD0DBF88011BBF8722163E000BF8A
:101E4000327848F2C00330F8221001EA0C0119433D
:101E500020F8221030F82230B0F8501000EBC20207
:101E60005B04114416D4B1F806746FF39F2747BB87
:101E70004EE000BFB7F8027400256FF39F27DB1B0D
:101E800038BF2B46136021D95FEA48622DD4B7BB17
:101E90003EE000BFB1F802746FF39F277FBB37E0CD
:101EA00030F8212043F60F731A404CF28003A3F55B
:101EB00000535A4020F821205FEA48627FF550AF76
:101EC00037B3DBF88011BBF876211CE030F8212015
:101ED00043F60F731A404CF28003A3F500535A40A7
:101EE00020F821205FEA4862D1D530F8212048F25D
:101EF000C00302EA0C021A4320F8212047B1DBF8A4
:101F00008011BBF874213B4604F036FA01E000BFB3
:101F10000027DBF88811DBE9600239443844CBF84C
:101F20008811CBF880011AB1DBF87C01B8420BD9DB
:101F300031782046FFF72AFD40F60F7B5FEA086004
:101F40007FF590AE0AE000BF2068314603F0E0FD67
:101F500040F60F7B5FEA08607FF584AE206809EBEE
:101F6000890130F81A2004EBC10502EA0B0101F5E2
:101F7000004120F81A1095F82F1005F12C090129BD
:101F800026D195F8381000294FF00001696400F05F
:101F90003F815FEA486100F18B8095F82D1001299F
:101FA00000F02081002940F03381B0F8501099F8FA
:101FB0000020084400EBC200B0F8061421F4F841F8
:101FC000A0F80614B0F8061441F4004112E100BF75
:101FD0005FEAC8511ED4B0F8502099F800100244AE
:101FE00002EBC102B2F802246B6C6FF39F229B1AC2
:101FF0004FF0000738BF3B466B6440F20B81296C01
:10200000AB6C114429649918A964494603F080FD1A
:1020100028E600BFB0F8507099F800102A4652F830
:10202000446F5FEA486300EBC10C5BD40CF2064ED0
:102030003EF8077000236FF39F27F61B38BF1E463C
:10204000166040F287805FEA484208D430F82120C9
:102050004CF2800302EA0B021A4320F821202A46A0
:1020600012F8501F012940F0A4812B4653F84C8FE1
:1020700053E904C153F8046C39443E44E04543F845
:102080000C1C43F8046C80F00181B8F1000F00F0E3
:1020900055810027C4461F60177095F82D20012A2E
:1020A00040F0FC80B0F850202EF802C06EE100BF76
:1020B00095F82D10012900F0A180002940F0A8809A
:1020C000B0F8501099F80020084400EBC200B0F8B6
:1020D000021421F4F841A0F80214B0F8021441F4FB
:1020E000004193E00CF2024E3EF8077000236FF3BC
:1020F0009F27F61B38BF1E4616604FD95FEA48423D
:1021000008D530F821204CF2800302EA0B021A4372
:1021100020F821202B4613F8501F012940F0498157
:102120002A4652F84CCF52E9046152F8048C3944E3
:10213000B844B44542F80C1C42F8048C80F0C480CA
:102140004FF00008BCF1000F83F8008040F0BF8022
:10215000BC46BEE095F82D20012A67D0002A6FD139
:10216000B0F850206244B2F8023423F4F843A2F8E5
:102170000234B2F8023443F40043A2F80234B0F857
:1021800050003EF8002022F4F8422EF800203EF8DD
:10219000002042F400422EF8002051E095F82D2056
:1021A000012A55D0002A5DD1B0F850203EF80270C7
:1021B00027F4F8472EF802703EF8027047F4004703
:1021C0002EF80270B0F850006044B0F8062422F4F3
:1021D000F842A0F80624B0F8062442F40042A0F821
:1021E00006243FE0B0F8501099F80020084400EBB6
:1021F000C2000021A0F806140AE000BFB0F8501099
:1022000099F80020084400EBC2000021A0F8021455
:1022100099F800102046FFF7AFFB23E5002B71D0A3
:1022200003F0010707EB53039B0275E0B0F8502061
:1022300000236244A2F80234B0F850002EF80030B7
:102240002046FFF799FB5FEA484012D5B1E000BF96
:10225000B0F8502000232EF80230B0F8500060444F
:10226000A0F806342046FFF787FB5FEA484040F1BC
:10227000A080206899F800104CF2800330F82120EB
:1022800002EA0B021A4320F8212092E0A8EB0C028C
:102290001A6095F82D20012A3FF404AF002A75D169
:1022A000B0F85070BCF13F0F50D35FEACC634FEAF7
:1022B0005C124FF0FF3308BF03EB5C124FF4004396
:1022C00043EA822260E000BFACEB0608B446C2F8E5
:1022D000008095F82D20012A2AD0002A64D1B0F878
:1022E0005070BCF13F0F3BD35FEACC634FEA5C1206
:1022F0004FF0FF3308BF03EB5C124FF4004343EA97
:1023000082224FE08B5A48F2000723F4F8438B52A5
:102310008B5ACFF6FF773B438B52018843F60F72FF
:1023200011404CF28002A2F580525140018099E4A4
:10233000B0F850202EF802C036E000BF0023137022
:10234000BC4695F82D20012AA8D1ABE6BCF1000FC0
:1023500010D00CF0010202EB5C02920214E000BF0C
:10236000BCF1000F14D00CF0010202EB5C029202EF
:1023700018E000BF37F80E2022F4F84227F80E20AC
:1023800037F80E2042F4004227F80E20EA8E0CE0C7
:1023900037F80E2022F4F84227F80E2037F80E20E6
:1023A00042F4004227F80E20AA8E1FFA8CF304F0A4
:1023B0003BF8206899F8001040F63F7330F8212070
:1023C0001A4048F2C003103B5A4020F82120FFF782
:1023D00049BC00BF2068B0F8441021F48061A0F827
:1023E0004410204600F082F994F8AC0201280DD187
:1023F00001B000F09CB800BF2068B0F8441021F490
:102400008041A0F8441001B000F091B801200025EF
:1024100084F8AC0284F828502068002103F0FCFF07
:1024200084F8AC5201B000F082B800BF2068B0F868
:10243000441021F40051A0F8441001B000F077B826
:102440002068B0F8401021F00401A0F84010B0F866
:10245000401021F00801A0F8401094F8E40201288F
:1024600006D1002084F8E40220460021FFF73CFA60
:10247000204600F04DF92068B0F8441021F4805156
:10248000A0F8441001B000F052B800BF2168B1F8C4
:10249000400040F00800A1F84000B1F8440020F4EA
:1024A0000060A1F84400B1F8400040F0040220466A
:1024B000A1F840200BE000BF2068B0F8441021F0E4
:1024C0008001A0F8441094F8E41299B1204601B0BC
:1024D00000F030B800F066B92168B1F8440020F48B
:1024E00000722046A1F8442001B000F028B800F0A6
:1024F00023B900BFB0F8401041F00401A0F840102B
:10250000B0F8401041F00801A0F84010012184F813
:10251000E412B0F854003C2101EA90022046012167
:10252000C4F8E82201B000F00FB8FFF7DDB930BC05
:10253000BDE8C08F30BCBDE8C04FFFF7CBBF30BC9B
:10254000BDE8C04FFFF7D3BF30BCBDE8C04FFFF7B9
:10255000ECBF00002DE9F04186B0002869D00446A8
:1025600090F8AD0228B9002084F8AC02204600F0B3
:1025700079F8032084F8AD02206803F065FA04F1CD
:102580001C0894E82F5098E8C0018DE820500DF108
:102590000C0C8CE8C00103F0C1F9002846D120687A
:1025A0000021002503F036FF616859B301200023A4
:1025B000002200BF03EB830304EBC30787F82C2042
:1025C000D3B201327B87D3B2994287F82D0087F8C6
:1025D0002F50C7E90F557D64ECD80020002300225E
:1025E00003EB830304EBC30787F86C210132D3B2FA
:1025F000994287F86D0187F86F01C7E95F00C7F856
:102600008401EDD804F10807D4E9056520688CCF72
:10261000D4F82480D4E907CECDE9007602AE86E86E
:102620002050CDF8148003F001FA38B1022084F86C
:10263000AD02012006B0BDE8F08100BF002084F8A3
:102640002800012084F8AD02E069012802D120466B
:10265000FFF734F9206803F0DFF9002006B0BDE889
:10266000F081000010B596B0044601A82030342156
:10267000FDF790FE206846F60001C4F20001884292
:1026800002D016B010BD00BF4FF4005001904FF0C3
:10269000806011900120CDE90200302004900720D5
:1026A000059004200690022007904FF480100890B7
:1026B00001A800F0E3F8002818BFFEF751FF41F22F
:1026C0005800C4F202000168002241F080610160FC
:1026D0000068002100F08060009000984320FFF720
:1026E000B1F84320FFF79AF816B010BD10B50446B4
:1026F0008068022818BFFEF733FFD4F8F8020121E2
:1027000002F08AFCD4F8F802BDE8104002F036BCB2
:1027100010B50446806948B14EF61050CEF2000064
:10272000016821F00601016001F0F2FED4F8F80220
:10273000BDE8104002F056BCD0F8F80202F05CBCD4
:1027400010B5044690F8AC02012804BF022010BD69
:10275000012084F8AC0284F82810206803F05CFEA5
:10276000002084F8AC0210BDD0F8F82200F52D71DD
:10277000104602F067BC000010B5044690F8AC02A9
:10278000012804BF022010BD2068012184F8AC128A
:1027900003F0DEFD206803F035F9002084F8AC0278
:1027A00010BD000010B50446D0F8F80202F0A0FCFD
:1027B000A069002808BF10BD4EF61050CEF20000F0
:1027C000016841F00601016010BD000047F2000100
:1027D000C4F200010A68B0F5007F02F4C06031D194
:1027E000B0F5007F2CD00868012262F34A2008600F
:1027F00040F22800C2F200000068322250434DF639
:102800008362C4F21B32A0FB0202900C4A6952059B
:1028100011D5421C0FD04A6952050CD558B14A69EE
:10282000520508D5012806D04A69520503D5022869
:10283000A0F10400EAD14869400544BF0320704775
:1028400000207047B0F5806FFAD00868022262F36A
:102850004A2008600020704747F20400C4F20000DC
:10286000016841F4806101607047000047F2000098
:10287000C4F20000006800F4C06070472DE9F04326
:1028800081B00446407841F288070007C4F202078D
:102890001ED5E06B80B1B0F5400F14D0B0F5000F3D
:1028A00040F0148157F87C0C40F4803047F87C0CE1
:1028B0004FF4000007E000BF201D002101F042FCA2
:1028C000814638B9E06B396821F44001084338602B
:1028D0004FF00009A078800752D557F8300C10F05F
:1028E00080580BD157F8300C40F0805047F8300C2E
:1028F00057F8300C00F080500090009847F2000527
:10290000C4F20005286840F480702860FEF722FFBA
:10291000064600BF2868C00508D4FEF71BFF801BD1
:102920000228F7D94FF0030921E000BFB9F1000FE9
:102930001DD1B86810F4407011D0216D88420BD0C1
:10294000B868B96820F4407041F48031B960B96862
:1029500021F48031B960B860C00740F0BF80B8682A
:10296000216D20F4407008434FF00009B860B8F1C1
:10297000000F05D157F8300C20F0805047F8300C8C
:102980002168C8070ED1880714D488061AD4880590
:1029900020D4480526D448062CD4C80532D488044F
:1029A00038D449E03868226A20F0030010433860C8
:1029B0008807EAD53868626A20F00C001043386056
:1029C0008806E4D53868A26A20F440601043386075
:1029D0008805DED53868626B20F4402010433860EB
:1029E0004805D8D53868A26B20F4401010433860F1
:1029F0004806D2D53868E26A20F440501043386067
:102A0000C805CCD53868226B20F4403010433860BC
:102A1000880411D53A68206C22F040620243B0F17C
:102A2000806F3A601ED0B0F1006F05D157F87C0C72
:102A300040F4801047F87C0C480327D53A68606C56
:102A400022F040620243B0F1806F3A6016D0B0F1DC
:102A5000006F1BD157F87C0C40F4801047F87C0CB9
:102A600014E000BF201D012101F06CFB216800284B
:102A700018BF81464803E1D408E000BF201D0121B2
:102A800001F060FB2168002818BF8146480410D57A
:102A90003868A26C20F040501043B2F1805F38607B
:102AA00007D1201D022101F04DFB2168002818BF2D
:102AB0008146080405D53868E16C20F08040084361
:102AC0003860484601B0BDE8F08300BF4FF001090F
:102AD000A07880073FF501AF52E700BFFEF73AFE4E
:102AE000064641F288354FF0030900BFB8688007F9
:102AF0003FF535AFFEF72EFE801BA842F6D936E72C
:102B00002DE9F04381B000286BD042F20008C4F2F6
:102B100002080446D8F800000D4600F0070088427D
:102B20000CD2D8F8000020F007002843C8F80000B5
:102B3000D8F8000000F00700A84252D1206841F206
:102B4000080910F00201C4F202090DD0A268D9F8F8
:102B5000003003F0F0039A4206D9D9F8003023F090
:102B6000F0031A43C9F80020C2072DD169B1A1684A
:102B7000D9F8002002F0F002914206D2D9F80020E4
:102B800022F0F0021143C9F80010D8F8001001F04B
:102B90000701A9420CD9D8F8001021F007012943F8
:102BA000C8F80010D8F8001001F00701A94218D1A8
:102BB00041071BD4000723D4D9F80000D9F804102A
:102BC00010F00C002CD131E0606800285ED00228A3
:102BD00000F07E80032840F0818059F8081C8901AC
:102BE00058D4012001B0BDE8F08300BFD9F800102F
:102BF000E26821F4E0611143C9F800100007DBD559
:102C0000D9F80000216920F4605040EAC100C9F8F9
:102C10000000D9F80000D9F8041010F00C0005D01D
:102C20000C2829D101F00301012925D159F8081CEC
:102C3000090703D4D9F88C10090A02E059F8081CD6
:102C4000090947F2404201F00F01C0F6000252F8B4
:102C5000211000280A4618BF00220C2871D1D9F88B
:102C6000040000F00300022846D0032804BF41F20C
:102C70000021C0F27A0143E0042857D008285BD134
:102C800041F20022C0F27A025BE000BF59F8081C52
:102C90008907A6D5D9F8001021F003010843C9F827
:102CA0000000FEF757FD064641F28837D9F80000CC
:102CB000616800F00C00B0EB810F15D0FEF74AFD03
:102CC000801BB842F2D9032001B0BDE8F08300BFF9
:102CD00059F8081C89037FF584AFDBE759F8081C15
:102CE00049057FF57EAFD5E7206800F00201002995
:102CF0007FF43DAF49E700BF42F20041C0F2F4016A
:102D0000D9F80400D9F80420C0F30210C2F3062257
:102D10005143D9F804200130B1FBF0F0C2F3416116
:102D2000022202EB4101B0FBF1F20AE042F2004262
:102D3000C0F2F40205E000BF002200210C283FF49D
:102D40008EAFD9F8000047F23041C0F30310C0F64F
:102D50000001085C00F01F0022FA00F140F20400BC
:102D6000C2F2000040F228020068C2F200021160C4
:102D700001B0BDE8F043FEF711BD00002DE9F043BE
:102D800083B0002800F0388341F200060446C4F204
:102D90000206B068F168227800F00C09D00601F054
:102DA00003081DD42078C00700F08180B9F1080F16
:102DB00076D0B9F10C0F08BFB8F1030F70D060687E
:102DC000B0F5803F07D0B0F5A02F40F04B823068BF
:102DD00040F480203060306840F4803030604CE255
:102DE000B9F1000F1ED0B9F10C0F08BFB8F1010FF7
:102DF00018D0A1693068002900F0968140F00100E8
:102E00003060FEF7A7FC05463068800700F19E8120
:102E1000FEF7A0FC401B02284FF00300F4D903B0DA
:102E2000BDE8F0833068800703D5A069002800F072
:102E3000E382256A3068000700F13E81D6F89400ED
:102E4000000900F0F000854200F23C813068B9F1E1
:102E5000000F40F008003060306820F0F00040EAD9
:102E6000050030607068E16920F47F4040EA01208D
:102E7000706040F0AF82B06DC00000F14B82B06D69
:102E800040F08050B065B06D00F080500290029824
:102E9000FFF7ECFCB16D21F08051B1653CE200BF61
:102EA0003068800303D56068002800F0A582207890
:102EB00080072DD5B9F1040F1CD0B9F10C0F08BF54
:102EC000B8F1020F16D0E1683068002900F0E48103
:102ED00040F480703060FEF73DFC054630684005E8
:102EE0000FD4FEF737FC401B02284FF00300F5D942
:102EF00095E700BF3068400503D5E068002800F082
:102F00007B827068216920F0F85040EA01607060AF
:102F10002078000760D42078400775D42078800698
:102F200000F1AE80A06A002800F00C83022840F077
:102F30001F81F068E16A00F003028A4240F03081AC
:102F4000226B6FF00F0300F0700103EB021291424D
:102F500040F02681616B00F4FE42B2EB012F40F09D
:102F60001F81A16B00F07842B2EBC16F40F0188175
:102F7000E26B0023CFF6E07303EA025200F4C001D3
:102F8000A2F50012914240F00B81216C4FF07E427D
:102F900002EA016100F0C06001F17E41884240F028
:102FA000FF803068800100F1CD82306840F0807091
:102FB0003060F06840F08070F060FEF7CBFB0446B4
:102FC0003068800100F1BE82FEF7C4FB001B0228BE
:102FD0004FF00300F4D922E76169D6F89400002984
:102FE00000F08C8040F00100C6F89400FEF7B2FBC0
:102FF000054600BFD6F8940080078CD4FEF7AAFBE4
:10300000401B0228F6D929E1B06D10F0805808D194
:10301000B06D40F08050B065B06D00F08050009011
:10302000009847F20007C4F200073868C00513D4BF
:10303000386840F480703860FEF78CFB054600BFAE
:103040003868C00508D4FEF785FB401B02284FF006
:103050000300F5D9E3E600BFA068012808D00528E1
:1030600040F0DE80D6F8900040F00400C6F89000F2
:10307000D6F8900040F00100C6F89000DFE000BFF5
:10308000616AD6F89800002900F0B48040F0010091
:10309000C6F89800FEF75EFB054600BFD6F898001C
:1030A00080073FF53FAFFEF755FB401B02284FF06E
:1030B0000300F3D9B3E600BF306800F0F0008542AA
:1030C0007FF6C4AEB06DC00000F18680B06D40F0F8
:1030D0008050B065B06D00F0805001900198FFF70E
:1030E000C5FBB16D21F08051B165B0F5007F79D09D
:1030F000802D40F2E3800320EBE000BF20F00100D0
:10310000C6F89400FEF726FB054600BFD6F89400EB
:1031100080077FF500AFFEF71DFB401B02284FF034
:103120000300F3D97BE600BF20F001003060FEF71A
:1031300011FB0546306880077FF534AEFEF70AFBC9
:10314000401B02284FF00300F4D968E6306840F0D5
:10315000080030603068D4E9072120F0F00008430F
:103160003060706820F47F4040EA0220706019E609
:10317000B9F10C0F00F04081306820F080703060B1
:10318000FEF7E8FA044600BF3068800140F1EE80A7
:10319000FEF7E0FA001B02284FF00300F4D93EE6E8
:1031A000B9F10C0F00F028813068400100F1248152
:1031B000306820F080703060FEF7CCFA0546306849
:1031C000800140F18181FEF7C5FA401B02284FF0D3
:1031D0000300F4D923E600BFFFF748FBB0F5007FFA
:1031E0007FF486AF812D73D30120A02D88BF0220EC
:1031F0006FE000BF20F00100C6F89800FEF7AAFAC1
:10320000054600BFD6F8980080077FF58BAEFEF725
:10321000A1FA401B02284FF00300F3D9FFE500BFDD
:10322000D6F89010002821F00101C6F89010D6F8C9
:10323000901021F00401C6F8901000F07B80FEF79A
:1032400089FA054641F28837D6F89000800700F1E8
:103250008380FEF77FFA401BB842F5D9032003B004
:10326000BDE8F0833168002821F480313160316895
:1032700021F48021316000F08580FEF76BFA05466D
:10328000306880033FF513AEFEF764FA401B6428F4
:103290004FF00300F4D9C2E520F480703060FEF7EF
:1032A00059FA0546306840057FF532AEFEF752FA0E
:1032B000401B02284FF00300F4D9B0E5A5F17000DF
:1032C000B0FA80F04009802D08BF022001E000BF65
:1032D000002042F20001C4F202010A6822F0070253
:1032E00002440A60096801F00701814240F08480CD
:1032F000306840F0080030603068D4E9072120F0E1
:10330000F00008433060706820F47F4040EA0220FB
:1033100070605FE0FFF7AAFAB0F5007F06D1812D5B
:1033200040D30120A02D88BF022045E0802D3BD94D
:10333000032041E0FEF70EFA054641F28837D6F841
:103340009000800708D5FEF705FA401BB8424FF001
:103350000300F4D963E500BFB8F1000F7FF4DEADE0
:10336000B06D20F08050B065D8E500BFF0684FF632
:10337000FC71CFF6EE610840F060002003B0BDE8BC
:10338000F08300BFFEF7E6F90546306880037FF55D
:103390008EADFEF7DFF9401B64284FF00300F4D92F
:1033A0003DE500BF002007E0A5F17000B0FA80F015
:1033B0004009802D08BF022042F20001C4F2020140
:1033C0000A6822F0070202440A60096801F0070156
:1033D000814211D1B068F16810F00C0005D00C28C2
:1033E0002AD101F00301012926D13168090707D448
:1033F000D6F89410090A05E0012003B0BDE8F08377
:103400003168090947F2404201F00F01C0F600029D
:1034100052F8211000280A4618BF00220C2837D184
:10342000F06800F00300022810D0032804BF41F226
:103430000021C0F27A010DE004281FD0082823D112
:1034400041F20022C0F27A0222E000BF42F20041C3
:10345000C0F2F401F068F268C0F30210C2F3062271
:103460005143F2680130B1FBF0F0C2F34161022236
:1034700002EB4101B0FBF1F20AE000BF42F2004270
:10348000C0F2F40204E000BF002200210C28C7D0E3
:10349000B06847F23041C0F30310C0F60001085C89
:1034A00000F01F0022FA00F140F20400C2F2000016
:1034B00040F228020068C2F200021160FEF76EF9C5
:1034C00000287FF4ACAC6DE4F06848F28C01C0F2E7
:1034D0009D1104F12C0700EA010C8ECF6FF00F0054
:1034E000D4E90F5400EB02100022CFF6E07241EA5B
:1034F0000C0102EA05520843A2F500124FF07E4586
:1035000040EA032005EA0465104305F17E4540EAE0
:10351000C7602843F060306840F080703060F06829
:1035200040F08070F060FEF715F9044630688001C5
:1035300008D4FEF70FF9001B02284FF00300F5D95D
:103540006DE400BF002003B0BDE8F083002804BF95
:1035500001207047B0B50446406A28B100202061C0
:1035600004F1140006E000BF6068B0F5827F03D06C
:1035700004F11C00002101600025A56294F85D00A3
:1035800020B9204684F85C5000F04EF8022084F800
:103590005D002068D4F80CE00268BEF5E06F22F010
:1035A000400202604EF4006298BF0125B2F5706FD0
:1035B0001CBF0023A3624FEA053CD4E90135D4E9DE
:1035C000042103F4827305F404452B4402F0020243
:1035D0001A44A36901F00101E569114403F4007282
:1035E000114405F03802256A114405F08002A56AED
:1035F000114405F40052114301600421626A0EF483
:10360000706501EA1341636B45EA0C0502F0100294
:10361000294303F0080311431943416000200121AD
:10362000206684F85D10B0BD80B586B0006843F2B6
:103630000001C4F20101884202D006B080BD00BF83
:1036400041F24C00C4F20200416941F480514161F1
:10365000416901F4805101910199016841F0010132
:103660000160006801A900F0010001900198E020CC
:103670000190022002900020039003200490052076
:1036800005904FF09040FDF785FF06B080BD00002B
:103690002DE9F04381B0044640681D461746B0F559
:1036A000827F0E4602D1A068002847D094F85C00C3
:1036B000012803D1022001B0BDE8F0834FF00109D9
:1036C00084F85C90FEF746F894F85D10012933D138
:1036D0008046002E4FF0010018BF002F00F0EE8052
:1036E000042084F85D00002020662664A4F844705D
:1036F000A4F84670A063A087E0872168C4E913009E
:10370000D4E902204B68B0F5E06F23F4805398BFF2
:1037100003F58053B2F5004F4B6051D00A68520652
:1037200059D5B4F84610B0F5E06F5DD8002900F027
:103730009080681C1FD12FE00220BFE0042084F895
:103740005D002046314632463B46009500F0E0F9E8
:1037500001B0BDE8F08300BF007B216C0870206CD5
:1037600001302064B4F846000138A4F84600B4F8EB
:10377000460000286DD020688168C907ECD1FDF7AC
:10378000E9FFA0EB0800A842F1D348E0FDF7E2FF13
:10379000B4F8460000285CD020688168C907F5D0DD
:1037A000007B216C0870206C01302064B4F8460066
:1037B0000138A4F84600B4F846000028ECD148E0EF
:1037C0000A6822F040020A600A6822F480420A6015
:1037D0000A685206A5D40A6842F040020A60B4F8AA
:1037E0004610B0F5E06FA1D999B3681C0DD11EE069
:1037F000C068216C21F8020B2164B4F8460001383E
:10380000A4F84600B4F8460018B320688168C907D8
:10381000EED1FDF79FFFA0EB0800A842F2D30320F2
:103820004CE000BFFDF796FFB4F8460088B1206871
:103830008168C907F6D0C068216C21F8020B2164A9
:10384000B4F846000138A4F84600B4F84600002851
:10385000EDD16068B0F5827F0BD1A068B0F5004F64
:1038600002D0B0F5806F04D12068016821F04001DA
:10387000016020462946424600F0DEFD30B1206E50
:1038800040F0200020662020206613E06068B0F53C
:10389000827F0FD1A068B0F5004F02D0B0F5806FE5
:1038A00008D120464FF4C0612A46434600F000FD8F
:1038B0000028E4D1206E002818BF0120002184F8E0
:1038C0005D9084F85C1001B0BDE8F0832DE9F04311
:1038D00081B0044690F85C00012803D1022001B0B9
:1038E000BDE8F0834FF001091D4616460F4684F8E7
:1038F0005C90FDF72FFF94F85D10012946D18046BA
:10390000002F4FF0010018BF002E00F0D7800320D9
:10391000002184F85D002166A763A687E6872164FD
:10392000A4F84410A4F84610A068E164B0F5004F74
:103930002068216507D1016821F04001016001681C
:1039400041F4804101600168490603D4016841F0F7
:10395000400101606168731EE268B1FA81F1B3FA57
:1039600083F349095B09B2F5E06F41EA03013DD9F0
:1039700031B137F8021BC160A763E08F0138E087DF
:10398000E08F002870D0681C0DD11EE0022095E069
:10399000A16B31F8022BC260A163E08F0138E08790
:1039A000E08F002860D0206881688907F0D4FDF797
:1039B000D1FEA0EB0800A842F2D303207EE000BFB6
:1039C000FDF7C8FEE08F00284ED020688168890787
:1039D000F6D5A16B31F8022BC260A163E08F0138EC
:1039E000E087E08F0028F0D13EE000BF89B1E18F91
:1039F00002294FF6FE7103D337F8022BC26004E0B0
:103A00003A7801310273A06B471CA763E08F08442A
:103A1000E087E08F40B3681C5DD04FF6FE70461C17
:103A200008E000BFFDF796FEA0EB0800A8426DD2AB
:103A3000E08FC8B1216888688007F3D5E28FA06B5A
:103A4000022A05D330F8022BCA604FF6FE7104E05B
:103A500000780873A06B31460130A063E08F084402
:103A6000E087E08F0028E5D120464FF4C0512A4678
:103A7000434600F01DFC68B920462946424600F046
:103A8000DBFC38B920464FF4C0612A46434600F0BB
:103A90000FFC28B1206E40F0200020662020206618
:103AA000A06838B9002000902068C1680091806843
:103AB00000900098206E002818BF0120002184F893
:103AC0005D9084F85C1001B0BDE8F083FDF742FE24
:103AD000E08F0028C8D0206881688907F6D5E28F7A
:103AE000A16B012A08D931F8022BC260A163E08FD3
:103AF0000238E087ECE700BF09780173A06B013062
:103B0000A063E08F0138E087E2E700BF0320D5E73C
:103B10002DE9F04381B0044690F85C00012803D100
:103B2000022001B0BDE8F08301201E4615460F4675
:103B300084F85C00FDF70EFE94F85D1081460129C3
:103B400040F0B080002F4FF0010018BF002D00F0B2
:103B50004681002E00F0438194F85D0004281CBFCC
:103B6000052084F85D00002020662564A4F84660E6
:103B7000A4F84460A763E687C4E913002068A68719
:103B8000E1684268B1F5E06F22F48052134698BFB5
:103B900003F58053012E88BF134643600268520626
:103BA00003D4026842F0400202606268731EB2FAF7
:103BB00082F2B3FA83F3DDF8208052095B09B1F594
:103BC000E06F43EA02017DD931B137F8021BC160D1
:103BD000A763E08F0138E087012518F1010035D196
:103BE00002E000BFFDF7B6FDE08F20B9B4F8460053
:103BF000002800F0D7802068816889070CD5E18F04
:103C000051B1012D08D1A16B002531F8022BC26002
:103C1000A163E18F0139E1878168C907E2D0B4F877
:103C200046100029DED0C068216C012521F8020B66
:103C30002164B4F846000138A4F84600D2E700BF7A
:103C4000FDF788FDA0EB0900404545D2E08F20B983
:103C5000B4F84600002800F0A58020688168890734
:103C60000CD5E18F51B1012D08D1A16B002531F8A0
:103C7000022BC260A163E18F0139E1878168C90726
:103C8000DED0B4F846100029DAD0C068216C0125D6
:103C900021F8020B2164B4F846000138A4F846006C
:103CA000CEE700BF6068B0F5827F09D1A068002828
:103CB0004FF0020008BF042940F0918042E700BFA6
:103CC00002208CE099B1E18F02294FF6FE7105D3F5
:103CD00037F8022BC26006E0032080E03A78013119
:103CE0000273A06B471CA763E08F0844E08701269E
:103CF00008F10105E08F18B9B4F84600002851D04A
:103D000020688168890719D5E18FB9B1012E15D1D5
:103D1000E28FA16B022A07D331F8022BC260A163A4
:103D2000E18F023908E000BF09780173A16B2068B8
:103D30000131A163E18F01390026E1878168C9075C
:103D400026D0B4F8461019B3B4F84610022913D39C
:103D5000C168226C22F8021B2264B4F846100239B2
:103D6000A4F84610B4F84610012910D8416841F46F
:103D7000805141600BE000BF007B216C0870206C1B
:103D800001302064B4F846000138A4F8460001264A
:103D9000FDF7E0FC002DADD0A0EB09004045A9D314
:103DA00003201CE020464FF4C05142464B4600F031
:103DB0007FFA68B9204641464A4600F03DFB38B9D3
:103DC00020464FF4C06142464B4600F071FA78B18C
:103DD000206E40F020002066202020660120012176
:103DE00084F85D10002184F85C1001B0BDE8F08318
:103DF0000020F4E7411E0020B0EB116F1CBF012032
:103E000070474EF21002CEF2000251604EF623517E
:103E1000CEF20001F0230B70072190601160704713
:103E2000FEE7000070B582B002F042FB80200DF189
:103E300007048DF8070000202146012200260125F5
:103E400002F062FB642002F07FFC00202146012288
:103E50008DF8076002F058FB6B20214601228DF897
:103E6000076002F051FB1B20214601228DF807500C
:103E700002F04AFB1C20214601228DF8075002F077
:103E800043FB02B070BD0000B0B584B00C460546DF
:103E90000DF102013B200E2202F00CFBBDF80A00DE
:103EA0009FED4A1A40BA00EE100ABDF80C00B8EEB9
:103EB000C00A40BA03EE100ABDF80E009FED442A76
:103EC00040BA04EE100AB8EEC33AB8EEC44A40F263
:103ED000F81020EE010A23EE013A24EE014AC2F264
:103EE000000020EE020A23EE023A24EE022A90EDB0
:103EF000004AB6EE005A20EE050A24EE054A34EEDA
:103F0000000A85ED000ABDF8021090ED014AC9BA19
:103F100023EE053A24EE054A80ED000A00EE101A61
:103F2000BDF8041034EE033A85ED013AC9BA90EDBC
:103F3000024A80ED013A03EE101ABDF8061022EE97
:103F4000052A24EE054AC9BA34EE022A04EE101AF4
:103F5000B8EEC00AB8EEC33AB8EEC44A85ED022AFC
:103F600080ED022A20EE010AB1EE002A23EE013A8A
:103F700024EE011A20EE020A23EE023A21EE021A82
:103F800090ED032A20EE050A22EE052A32EE000A01
:103F900084ED000A90ED042A23EE053A22EE052A6C
:103FA00032EE032A84ED012A90ED053A21EE051A3E
:103FB00023EE053A33EE011A84ED021A80ED030A6E
:103FC00080ED042A80ED051A04B0B0BD0000003871
:103FD0000000FA43F0B587B0002641F24C00069687
:103FE000C4F20200016840F6000441F004010160DF
:103FF0000168C4F6000401F004010191019901680F
:10400000002241F00101016000684FF4804100F09E
:1040100001000190019820464FF48045FDF794FB84
:104020004FF0904017210022FDF78EFB029502AD64
:10403000012720462946CDE903760596FDF7AAFA21
:10404000072002901120CDE903064FF09040294649
:104050000596FDF79FFA1020CDE902074FF090403A
:104060002946CDE90466FDF795FA07B0F0BD0000DA
:1040700070B541F2004043F20001C2F20000C4F208
:1040800001014FF4827200234FF4E06C4FF0020EF6
:10409000012480E80E5000F114014FF40075202631
:1040A00070C10721C0E90833C0E90A31C0E90C3307
:1040B000FFF74CFA002808BF70BDBDE87040FDF75F
:1040C0004FBA000080B540F6346040F20801C2F2F9
:1040D0000000C2F20001002200F006FE002818BF16
:1040E000FDF73EFA40F6346040F22C01C2F20000C7
:1040F000C2F2000101F024F8002818BFFDF730FAE1
:1041000040F6346040F25C11C2F20000C2F20001DD
:1041100000F050FB002818BFFDF722FA40F634608B
:10412000C2F2000001F02CF8002808BF80BDBDE8F5
:104130008040FDF715BA0000FEE70000FEE7000032
:1041400070470000F0B581B041F20007C4F20207E9
:10415000FA680D469107044614D0F868216800F00B
:10416000030088424FF0010040F09F80002900F0DA
:104170009C80F8686168C0F302100130884232D137
:1041800034E000BF206803280CD0022816D0012894
:1041900029D13968012211F0020182EA510116D1B8
:1041A00020E000BF3968890310D43968012211F476
:1041B000802182EA91410AD114E000BF39680122CE
:1041C00011F4806182EA912101D10BE00021FA68AB
:1041D00063686FF00F0622F0730206EB03131A43B5
:1041E0001043F86011B1012001B0F0BD386820F033
:1041F00080603860FDF7AEFA064600BF38680001FF
:1042000006D5FDF7A7FA801B0228F7D944E000BFC6
:10421000012D0DD0F5B9386948F2FF01C0F2FF71E8
:104220000840D4E9021240EA012040EAC26022E0DC
:1042300048F2FF013869CFF6FF112269002301F12E
:10424000B461CFF6E0730840A16803EA0252A2F518
:1042500000120DE0386948F2FF016269CFF6FF11E4
:104260004FF07E430840A16803EA026202F17E42F9
:1042700040EA012010433861386840F080603860BF
:10428000FDF768FA054600BF3868000108D4FDF75D
:1042900061FA401B0228F7D9032001B0F0BD00BF2E
:1042A000A069396908433861002001B0F0BD000001
:1042B0002DE9F04782B000261F4690460D46814604
:1042C0008DF80360FDF746FA381A00EB0807FDF792
:1042D00041FA40F22801C2F2000109682322514349
:1042E000090DD9F8004079430191A168294271D0A4
:1042F000824618F1010037D0B5F5C06F1CD100BF60
:10430000207B8DF803009DF80300FDF723FAA0EB56
:104310000A00B84262D2019801990028A1F1010176
:104320000191D9F80010896808BF074611F4C06FE1
:10433000E6D100264EE000BFFDF70CFAA0EB0A0024
:10434000B8424BD2019801990028A1F101010191D5
:10435000D9F80010896808BF07462942ECD1002629
:10436000304602B0BDE8F0870026B5F5C06F25D114
:10437000207B8DF803009DF80300A06810F4C06F47
:10438000EDD0207B8DF803009DF80300A06810F4A9
:10439000C06FE4D0207B8DF803009DF80300A06877
:1043A00010F4C06FDBD0207B8DF803009DF8030074
:1043B000A06810F4C06FDBD10CE000BFA0682842F9
:1043C000CDD0A0682842CAD0A0682842C7D0A06833
:1043D0002842F3D1304602B0BDE8F087D9E90001A8
:1043E0004268B1F5827F22F0E00242600BD1D9F839
:1043F0000810B1F5004F02D0B1F5806F03D101680C
:1044000021F040010160D9F82810B1F5005F07D113
:10441000016821F400510160016841F4005101601C
:10442000012089F85D00002089F85C0003263046F1
:1044300002B0BDE8F0870000F0B581B015460E4629
:104440000446FDF787F9281A8719FDF783F940F22A
:104450002801C2F200010968C1F3CB317943009110
:1044600021688A68120622D50546701C15D000BF47
:10447000FDF770F9401BB8421CD200980099002843
:10448000A1F1010100912168896808BF074608066B
:10449000EED40CE08868000609D58868000606D5C9
:1044A0008868000644BF88685FEA0060F2D4002094
:1044B00001B0F0BDD4E900014268B1F5827F22F07D
:1044C000E00242600AD1A168B1F5004F02D0B1F517
:1044D000806F03D1016821F040010160A16AB1F54C
:1044E000005F07D1016821F400510160016841F4C7
:1044F00000510160012084F85D00002084F85C0018
:10450000032001B0F0BD000070470000FDF728B99E
:10451000B0B596B005A804304021FBF73BFF4FF43F
:104520000070FEF753F928B1EFF3108072B600BFA8
:10453000FEE700BF122005904FF480700890102015
:1045400009906020012500240D9005A80B950C947E
:104550000F94FEF713FC28B1EFF3108072B600BF82
:10456000FEE700BF0F20CDE9000568460021CDE938
:1045700002440494FEF7C4FA20B1EFF3108072B63F
:10458000FEE700BF16B0B0BD4EF68850CEF2000078
:10459000016841F4700101607047000010B5D0F867
:1045A000BC323BB38E4601EB810100EB810151F837
:1045B000184F64B1D0F8C4C20EEB8E020CEBC202ED
:1045C000D2F83CC0B4FBFCF202FB1C42A2B10024B6
:1045D000C3F81442D0F8C002D0F810C0BCF1000FEC
:1045E00006D0D3F8080203F504717246E0470024B0
:1045F000204610BD032010BD00240C60714600222F
:10460000002300F07FFD204610BD0000B0B5D0F8BB
:10461000BC527DB1044600F02DFCD4F8C02205F553
:104620000371D368D5F80422C5F80C0210469847E8
:104630000020B0BD0320B0BDB0B58121044600F01C
:104640007BFB002520460121258700F075FB2046D5
:104650008221A4F8785100F06FFBD4F8BC02E56425
:1046600048B1D4F8C00240688047D4F8BC0201F0D9
:1046700025F8C4F8BC520020B0BD000010B5D0F839
:10468000BC428CB1D0F8C01281B194F80002FF286E
:104690000CD08B6894F8012221469847FF2084F8BB
:1046A0000002002010BD00BF032010BD002010BD7F
:1046B000014640F2EC000A22C2F200000A80704774
:1046C000014640F264004322C2F200000A807047B3
:1046D000014640F2A8004322C2F200000A8070475F
:1046E000014640F2F8004322C2F200000A807047FF
:1046F000F0B581B004464FF4077000F0E1FFE8B375
:104700000546C4F8BC02207C4026002808BF4FF4B0
:104710000076204681210222334600F009FC012761
:104720002046012102223346278700F001FC102099
:10473000A4F84E002046822103220823A4F87871B1
:1047400000F0F6FBD4F8C002A4F84C700068804773
:104750000020C5F81402C5F81802207CD5F8042200
:10476000002820464FF001010CBF4FF40073402396
:1047700000F0F2FB002001B0F0BD00BF0020C4F843
:10478000BC02022001B0F0BD80B5D0F8BC1279B1F6
:1047900090F810C0D1F8042240230121BCF1000F91
:1047A00008BF4FF4007300F0D7FB002080BD00BFAE
:1047B000032080BD00290EBF0320C0F8C0120020D6
:1047C00070470000D0F8BC0200280EBF0320C0F8DC
:1047D0000412002070470000D0F8BC0200280FBF70
:1047E0000320C0F80812C0F8102200207047000013
:1047F00070B582B0D0F8BC62044600208DF8070086
:10480000ADF80400C6B108780D4610F0600117D06D
:1048100020295DD1EA88002A2AD040B2B0F1FF3FBA
:1048200032DD6878314686F80002204686F801229B
:1048300000F096F8002617E00326304602B070BD5F
:1048400068780B2844D80026DFE800F0060E4242C4
:104850004242424242422C3A94F89C02032837D109
:1048600001A92046022225E0304602B070BD00BFFB
:10487000D4F8C00229468368687800220026984749
:10488000304602B070BD00BFD4F8C0023146836824
:1048900068789847EA8820463146072A28BF0722C9
:1048A00008E000BF94F89C02032811D10DF1070124
:1048B0002046012200F06EF80026304602B070BD9E
:1048C00094F89C02032803D10026304602B070BD44
:1048D0002046294600F038F80326304602B070BD65
:1048E00080B5D0F8BC223AB1D2F8141200294FF0AA
:1048F000010103D0084680BD032080BDC2F8141218
:10490000D2F81032D2F808228121C36200F0FAFBFB
:104910000021084680BD000080B5D0F8B8220AB159
:1049200052689047002080BD80B513460A4600219A
:1049300000F012FB002080BD80B513460A4600211E
:1049400000F0E0FB002080BD10B58021044600F09F
:10495000ABFB20460021BDE8104000F0A5BB0000E5
:1049600080B513460A460321C0F894120021C0E91D
:10497000563300F0F1FA002080BD000080B505211B
:10498000C0F8941200210022002300F0E5FA002074
:1049900080BD000080B513460A460221C0F894127B
:1049A0000021C0E9063300F0ADFB002080BD00000F
:1049B00080B50421C0F8941200210022002300F0E9
:1049C000A1FB002080BD000010B540F21424C2F20B
:1049D00000040A4602A0214600F018F9204610BD46
:1049E00043444320436F6E666967000040F24810FD
:1049F0001222C2F200000A807047000010B540F297
:104A00001424C2F200040A4602A0214600F0FEF877
:104A1000204610BD43444320496E7465726661634D
:104A20006500000040F270100422C2F200000A800B
:104A30007047000010B540F21424C2F200040A4688
:104A400002A0214600F0E2F8204610BD53544D6903
:104A500063726F656C656374726F6E696373000077
:104A600010B540F21424C2F200040A4602A0214606
:104A700000F0CCF8204610BD53544D333220566917
:104A8000727475616C20436F6D506F72740000001A
:104A9000B0B547F29050C1F6FF70026883684FF0DE
:104AA0001A0C9B18A1F800C000F0A3804FF0370C3F
:104AB0001A0F0CEB13714068B3F1204F38BF02F1AD
:104AC000300140F27412C2F20002917019014FF0ED
:104AD000000E0CEB117582F803E0C3F30364B1F12F
:104AE000204F38BF04F13005190215710CEB117518
:104AF00082F805E0C3F30354B1F1204F38BF04F14D
:104B00003005190395710CEB117582F807E0C3F3BA
:104B10000344B1F1204F38BF04F130051904157278
:104B20000CEB117582F809E0C3F30334B1F1204FA7
:104B300038BF04F13005190595720CEB117582F838
:104B40000BE0C3F30324B1F1204F38BF04F130056B
:104B500019061573C3F303140CEB1175B1F1204F53
:104B60004FEA037103F00F0382F80DE038BF04F140
:104B7000300503F13704957382F80FE0B1F1204F4F
:104B800038BF03F13004010F0CEB1073147482F87A
:104B900011E0B0F1204F38BF01F1300301010CEBFF
:104BA0001174937482F813E0C0F30363B1F1204FE2
:104BB00038BF03F1300401021475C0F303530CEB4A
:104BC0001174B1F1204F4FEA003182F815E038BF7F
:104BD00003F130040CEB1173947582F817E0C0F305
:104BE0000340B1F1204F38BF00F13003137682F853
:104BF00019E040F27410C2F20000B0BD40F23C1067
:104C00000C22C2F200000A807047000010B5002894
:104C100068D00378B3B100F1020E4FF0000C00BF72
:104C20001EF8013C93B19EF800309BB19EF8013014
:104C3000A3B19EF802300CF1040C002B0EF1040E0F
:104C4000EED10DE04FF0000C0AE000BF4CF0010C7B
:104C500006E000BF4CF0020C02E000BF4CF0030C79
:104C60005FFA8CFC022303EB4C03138003220B70CE
:104C70004A7090F800E0BEF1000F33D0841C02228D
:104C80004FF0000C1AE000BF101DC0B20B5440F0F2
:104C9000010001F800C06378002B08BF10BD901D13
:104CA000C0B20B5440F0010001F800C094F802E0DB
:104CB0000832BEF1000F04F1040413D0D3B201F89E
:104CC00003E043F0010301F803C014F8013C4BB1C9
:104CD000901CC0B20B5440F0010001F800C02378D2
:104CE000002BD1D110BD0000002804BF0320704765
:104CF0000023C0F8B832C0F8C0320029C0F8CC3266
:104D000018BFC0F8B412012180F89C12027000F0A4
:104D1000B5B8000080B5D0F8C402FCF76BFE40F2D5
:104D20000032C100C0F2013222FA01F1032888BF2B
:104D30000321C8B280BD000080B5D0F8C402FCF7E2
:104D400031FE40F20032C100C0F2013222FA01F11C
:104D5000032888BF0321C8B280BD0000B0B5044657
:104D600071B194F89C0203284AD1D4F8B802426980
:104D7000002A45D020469047002808BF0020B0BD3B
:104D8000D4F89402022834D1D4E9070188420DD91D
:104D9000431A204611461A46E361FFF7CDFD20462F
:104DA00000210022002300F0D7F822E010D1A169F1
:104DB00081420DD3D4F89802814209D220460021C5
:104DC00000220025FFF7B8FDC4F89852E7E700BFBE
:104DD00094F89C02032805D1D4F8B802C16809B13F
:104DE000204688472046802100F05EF92046FFF7E4
:104DF000C5FD94F8A002012804BF002084F8A00299
:104E00000020B0BD10B5044671B194F89C0203288F
:104E10001DD1D4F8B8028269CAB120469047002853
:104E200008BF002010BD00BFD4F8940203280ED1A3
:104E3000D4E9570398420DD9C01AC4F85C019842CE
:104E400038BF0346204611461A46FFF76DFD002085
:104E500010BD00BF94F89C02032805D1D4F8B80215
:104E6000016909B1204688472046FFF7A1FD0020CF
:104E700010BD0000D0F8C402FCF7EEBD10B504462A
:104E8000FDF7EAFC41F2041046F60001C2F2000010
:104E9000C4F200010822022380E80E000021C0F8BD
:104EA000F842C4F8C402C0E90431C0E90611016245
:104EB000FDF750FB002818BFFCF752FBD4F8C402E2
:104EC000002100221823FCF739FDD4F8C402802108
:104ED00000225823FCF732FDD4F8C40281210022BD
:104EE000C023FCF72BFDD4F8C402012100224FF4AB
:104EF0008873FCF723FDD4F8C402822100224FF40A
:104F00008073FCF71BFD002010BD00004AB2D0F8F2
:104F1000C40201F07F0101EB810100EBC10000F54B
:104F2000B771002A48BF00F12E01087870470000D1
:104F300080B59446D0F8C4021A466346FCF796FD45
:104F400040F20032C100C0F2013222FA01F103281E
:104F500088BF0321C8B280BD80B5D0F8C402FCF779
:104F6000B9FD40F20032C100C0F2013222FA01F173
:104F7000032888BF0321C8B280BD0000F0B581B00E
:104F800004460120002184F89C02C4F89412D4F84D
:104F9000B8026160C4F8A41200B3D4F8BC1221B105
:104FA000426812B12046002190472046002100228D
:104FB000402300254026FFF7BBFF01272046802124
:104FC00000224023A4F86471C4F86061FFF7B0FFC9
:104FD000A7842662284601B0F0BD00BF03252846FD
:104FE00001B0F0BD90F89C12042904BF90F89D1206
:104FF00080F89C120020704780B5D0F8B81249B1F3
:1050000090F89C22032A02D1C96901B18847002087
:1050100080BD00BF032080BD024600201174704790
:1050200080B5D0F8C402FDF78BFB40F20032C1001E
:10503000C0F2013222FA01F1032888BF0321C8B26D
:1050400080BD0000B0B500F2AA250446284600F055
:105050006BF80120C4F8940294F8AA02B4F8B022C4
:1050600000F01F010229C4F8982209D001290DD0AF
:1050700091B920462946BDE8B04000F083B800BF92
:1050800020462946BDE8B04000F036BA2046294601
:10509000BDE8B04000F0D4BA00F080012046BDE881
:1050A000B04000F001B8000080B5D0F8C402FCF7B1
:1050B0002BFD40F20032C100C0F2013222FA01F1B0
:1050C000032888BF0321C8B280BD000080B5D0F896
:1050D000C402FDF751FB40F20032C100C0F20132C0
:1050E00022FA01F1032888BF0321C8B280BD000065
:1050F000014690F89C02042281F89D02002081F86C
:105100009C22704780B5D0F8C402FCF73BFD40F20A
:105110000032C100C0F2013222FA01F1032888BF37
:105120000321C8B280BD00000A7802704A7842703C
:105130004A8842808A888280C988C180704700007E
:1051400010B582B004460020ADF8060061B1CA6A0D
:10515000C4F8B81222B10DF106009047C4F8CC0291
:10516000002002B010BD00BF032002B010BD00003F
:10517000D0F8B822002A04BF0320704712681047F5
:10518000FFF7A4BFB0B582B00D460978044611F010
:1051900060010DD0402901D020292FD1D4F8B802C8
:1051A00029468268204602B0BDE8B040104700BFE3
:1051B0006878092800F2D680DFE810F00A002C0099
:1051C000D4003E00D40046006600D4008000940065
:1051D00094F89C020138022800F2C480E888022872
:1051E00040F0C080D4F8A4020322002808BF0122A6
:1051F000214641F80C2F2046022203E1204680215F
:10520000FFF752FF204600210025FFF74DFF2846FB
:1052100002B0B0BD94F89C020138022800F2A280CE
:10522000688800250128F2D12046C4F8A452FFF76F
:10523000BFFB284602B0B0BD6888012840F06880F6
:105240000120C4F8A40211E1A888002840F08A8057
:10525000E888002840F0868068887F2800F28280F5
:1052600094F89C12032900F07D80C5B284F89E0258
:1052700020462946FFF7D4FE2046FFF799FB002D74
:105280000CBF012002201DE168884FF0FF3101EBC7
:10529000102100220E29ADF8062000F2B980DFE8C7
:1052A00001F0096D7BB7B78791B7B7B7B7B7B7B795
:1052B0009D0000BFD4F8B402026893E0E88801289A
:1052C00050D194F89C02411E022945D20025214666
:1052D00041F8085F20460122FFF75CFB284602B038
:1052E000B0BD00BF688840F21025C2F2000510F082
:1052F000FE0F287010D020468021FFF7D5FE2046F3
:105300000021FFF7D1FE0325284602B0B0BD00BF43
:105310000025284602B0B0BD94F89C22C1B2032AF1
:1053200000F08280022A40F0A980002900F09E80CF
:1053300020466160FFF71CFF002800F0BF80054693
:1053400020468021FFF7B0FE20460021FFF7ACFE8B
:10535000284602B0B0BD00BF032803D1211D20465E
:1053600001224FE020468021FFF79EFE20460021CB
:105370000025FFF799FE284602B0B0BD217CD4F885
:10538000B80200290CBF816AC16A0DF10600884786
:105390000146022020E000BFC0B2052838D8DFE86F
:1053A00000F003979B9FA3A7D4F8B402426818E0CB
:1053B000207C68BBD4F8B802416B0DF10600884729
:1053C00014E000BF207C18BBD4F8B802016B0DF1CB
:1053D0000600884701460720487008E0D4F8B40268
:1053E000C269AAB1207C0DF1060190470146EA8806
:1053F000E2B3BDF8060058B1904238BF02462046DD
:10540000ADF80620FFF7C6FA0025284602B0B0BD69
:1054100020468021FFF748FE20460021FFF744FE8A
:105420000025284602B0B0BDC1B3606888421DD0D7
:10543000C1B22046FFF770FA297820466160FFF775
:1054400097FE98B1054620468021FFF72DFE2046A5
:105450000021FFF729FE21792046FFF75DFA02209F
:1054600084F89C02284602B0B0BD00BF2046FFF77A
:105470009FFA0025284602B0B0BD00BF204680211B
:10548000FFF712FE20460021FFF70EFE2978204686
:10549000FFF742FA0325284602B0B0BD022084F887
:1054A0009C026160204600210025FFF735FA204666
:1054B000FFF77EFA284602B0B0BD00BF2046FFF7D6
:1054C00077FA032084F89C020025284602B0B0BD7C
:1054D000D4F8B402826884E7D4F8B402C26880E7E2
:1054E000D4F8B40202697CE7D4F8B402426978E7E0
:1054F000D4F8B402826974E7B0B50D460978044661
:1055000011F060010CD0402901D0202922D1D4F81B
:10551000B802294682682046BDE8B040104700BF67
:105520006878297900B3012836D0032868D194F827
:105530009C02032834D1688838B911F07F0004D068
:10554000E88810B92046FFF7AFFD2046FFF730FA94
:105550000020B0BD20468021FFF7A6FD2046002197
:10556000FFF7A2FD0020B0BD94F89C02032825D0CF
:10557000022808BF5FEA416042D111F0800004F1C7
:1055800014014FF0140004BF4FF4AA7004F5AA717F
:105590000022225020464DE094F89C02032839D086
:1055A00002282DD148062BD02046FFF77DFD20464E
:1055B0008021FFF779FD0020B0BD00BF01F00F0092
:1055C00000EB8000802904EB80002CBF808CB0F8B9
:1055D0006401A8B101F07F0000EB800004EB8000C3
:1055E00000F11405802938BF00F5AA7548061DD0C2
:1055F0002046FFF78BFC002818BF012017E000BFF2
:1056000020468021FFF750FD20460021FFF74CFD8A
:105610000020B0BD68880028A4D1480602D02046EA
:10562000FFF778FB2046FFF7C3F970E700202860FA
:10563000204629460222FFF7ADF90020B0BD000048
:10564000B0B50D460978044611F0600118BF402935
:1056500014D194F89C020138022803D8A88810F0CD
:10566000FE0F17D020468021FFF71EFD20460021A7
:105670000025FFF719FD2846B0BD00BF2029E8D05E
:1056800020468021FFF710FD204600210025FFF76E
:105690000BFD0BE0D4F8B8022946826820469047FB
:1056A000E9880546002908BF002D01D02846B0BD75
:1056B0002046FFF77DF90020B0BD000070470000D4
:1056C00040F21440C2F20000704700002DE9F041A2
:1056D0000D78024691F803E000EB850330F82500D1
:1056E00047F27067BEF1030F20EA070408D80020D4
:1056F000DFE80EF002080F0C44F4007408E000BF6D
:10570000012006E044F4806402E000BF44F4C06479
:10571000002048F28007CFF6FF7744EA07061E8094
:105720001E8840F60F7426402E4337431F800F7BA0
:1057300048F2800C002F49D01C8840F60F66344098
:1057400048F28006BEF1020F08BF06F580763443AA
:105750001C80B2F850400E8902EBC5052C4426F09F
:105760000106A4F80064B2F850204C892A4424F0C1
:105770000104A2F8044449781A88002902F48041FF
:105780004AD039B1198840F60F7211400CF58042A9
:10579000114319801988490607D5198840F60F72F8
:1057A00011400CF1400211431980198840F63F72F4
:1057B00011400CF120024A40BEF1010F08BF41EA3E
:1057C0000C021A80198843F60F7244E04E78B2F842
:1057D0005080CC88EF00002E24F0010642D0D11971
:1057E0004144A1F800641988490607D5198840F694
:1057F0000F7211400CF1400211431980198840F6D4
:105800003F72BEF1010F01EA020125D00CF1200226
:1058100051401980BDE8F08139B1198840F60F7206
:1058200011400CF58042114319801988490607D5AB
:10583000198840F60F7211400CF140021143198093
:10584000198843F60F7211400CF5405251401980EF
:10585000198840F63F72114041EA0C011980BDE8F9
:10586000F08100BF174407EB0804A4F80464B2F801
:1058700050E00C6907F206413F2C25D366094FF032
:10588000FF38E70608BF08EB541648F20004CFF6CD
:10589000FF7444EA86242EF801401988490407D58C
:1058A000198840F60F7739400CF580473943198045
:1058B000B5B1198843F60F7211400CF500525140F2
:1058C0001980BDE8F08100BFA4B104F0010606EB29
:1058D0005404A4022EF8014019884904E8D5DFE7F2
:1058E000118843F60F7211400CF540525140198057
:1058F000BDE8F0813EF8014048F2000624F4F84487
:105900002EF801403EF80140CFF6FF7634432EF8E2
:10591000014019884904C3D4CAE700000020704739
:10592000B0B50C784B78097B024630F824004CF275
:10593000800C4CF2800500294FEA44013AD0002B3C
:1059400000F4804040D040B132F8110040F60F73AF
:10595000184040EA0C0022F8110032F8110043F61A
:105960000F7E400640F63F7009D532F8113040F600
:105970000F742340ACF57F54234322F8113032F8E2
:10598000113040F60F7423402B43ACF5804522F8CC
:10599000113032F811301840284322F8110032F843
:1059A0001100ACF5804300EA0E000343002022F80A
:1059B0001130B0BDF3B1400640F63F7EEFD5ACF5F7
:1059C0007F5540F60F70E4E740B132F8110040F621
:1059D0000F73184040EA0C0022F8110032F8110051
:1059E000ACF57F55400640F63F7E43F60F70BCD4C1
:1059F000C5E700BF400443F60F7ED0D540F60F70D8
:105A0000C7E700000146B0F8580040F4004200200B
:105A1000A1F8582070470000B0F8582001466FF3F5
:105A2000DF320020A1F85820704700000146012015
:105A3000A1F8400000220020A1F84020A1F8442055
:105A4000A1F85020704700000146B0F8400044F231
:105A50007F0202400020A1F84020704700207047DC
:105A600080B50A7B12B1002080BD00BF0A784B7858
:105A700030F822C04FEA4202B3B15FEA4C6348F209
:105A8000A00E0BD530F812C040F60F730CEA030CD1
:105A90000EF1200343EA0C0320F81230C9780129E3
:105AA000E1D040F63F7110E05FEA4C414BF2800ECE
:105AB00009D530F8121040F60F7319400EF58053D7
:105AC000194320F8121043F60F7130F812301940C4
:105AD00081EA0E0120F81210002080BD02460B78EA
